:020000040800F2
:1000000008A20020F9B40008C3B20008C5B2000875
:10001000D7B20008DBB20008DFB200080000000021
:10002000000000000000000000000000E3B2000833
:10003000E5B2000800000000EFDA000853DD000818
:1000400013B5000813B5000813B5000813B5000870
:1000500013B5000813B5000813B5000813B5000860
:1000600013B5000813B5000813B5000813B5000850
:1000700013B5000813B5000813B5000813B5000840
:1000800013B50008C31F000813B5000813B5000816
:10009000EF0A00089D0C000813B5000813B500080E
:1000A00013B5000813B5000813B5000813B5000810
:1000B0008F170008FF18000813B5000813B50008D3
:1000C00013B5000813B5000813B5000813B50008F0
:1000D00013B5000813B50008E91F000813B50008A0
:1000E00013B5000813B5000813B5000813B50008D0
:1000F00013B5000813B5000813B5000813B50008C0
:1001000013B5000813B5000813B5000813B50008AF
:1001100013B5000813B5000813B5000813B500089F
:1001200013B5000813B5000813B5000813B500088F
:1001300013B5000813B5000813B5000813B500087F
:100140007F0F0008C110000813B5000813B50008A0
:1001500013B5000813B50008491E000813B50008C0
:1001600013B5000813B5000813B5000813B500084F
:1001700013B5000813B5000813B5000813B500083F
:1001800013B5000813B50008DFF80CD00EF02AFAFA
:10019000004800470906000808A2002030BF72B6D8
:1001A000704762B6704780F30888704756E0F84899
:1001B000407C01284FD1032008F04BF80120F5497D
:1001C00081F88802F44981F8C00081F880010102B9
:1001D000F24809F011FD47F230500DF091FBED4867
:1001E00090EDA70ADFEDEE0A30EE200A80EDA70AB7
:1001F000002413E0EB48EC4948600420087200201A
:100200004872022088724620C8724E21E648017367
:100210000146E64808F0CAFE601CC4B2032CE9DBC4
:1002200044F620600DF06CFB4FF48071DB4809F060
:10023000E1FC0020D84981F8C00081F88001D54850
:1002400090EDA70ADFEDD60A30EE200A80EDA70A6E
:100250000020CF49487464200DF052FBA7E780E0EE
:10026000D348B0F9140000EE900AF8EEE00AB0EEC0
:10027000600A012007F0ACFECD48B0F9640000EE42
:10028000900AF8EEE00AB0EE600A022007F0A0FE45
:10029000C148B0F99C0100EE900AF8EEE00AB0EE19
:1002A000600A032007F094FEBB48D0ED690AB0EE67
:1002B000600A042007F08CFEB648B0F9CA0100EECF
:1002C000900AF8EEE00AB0EE600A052007F080FE22
:1002D000B048B0F9C80100EE900AF8EEE00AB0EEBE
:1002E000600A062007F074FEAA48B0F9A20200EEE8
:1002F000900AF8EEE00AB0EE600A072007F068FE08
:10030000A448B0F9A00200EE900AF8EEE00AB0EEC0
:10031000600A082007F05CFE9E48B0F97A0300EE00
:10032000900AF8EEE00AB0EE600A092007F050FEED
:100330009848B0F9780300EE900AF8EEE00AB0EEC3
:10034000600A0A2007F044FE0A2007F092FE0446E5
:100350002146984801F061FD4FF4C8700DF0D0FAC5
:1003600000BF7DE706E09449944807F0BDFB0420F8
:100370000DF0C6FAF7E77CE09148007828B908202C
:1003800001F0BCFB01F0F1FB6FE010208D494883C8
:10039000012007F05EFF8A4840684468002560E05D
:1003A000207800F00F0018B90A2001F0A7FB46E002
:1003B000207800F00F00012826D140208149488391
:1003C0002178C1F3031001F099FB41F288300DF060
:1003D00097FA208800F47060B0F5007F06D10B20FA
:1003E00001F08CFB41F288300DF08AFA208800F48D
:1003F0007060B0F5807F22D10C2001F07FFB41F2CC
:1004000088300DF07DFA1AE0207800F00F00022805
:1004100008D120206B4948832178C1F3031001F0F3
:100420006DFB0CE0207800F00F00032807D180203E
:10043000644948832178C1F3031001F05FFB6468CD
:100440004FF47A700DF05CFA40205E49088320205A
:100450000883802008834FF47A700DF051FA681CED
:10046000C5B257480078A8429ADC4FF47A700DF074
:1004700047FA81E729E054480078002811DD4FF45D
:100480008070504908834FF47A700DF039FA4FF4B8
:1004900080704C4948834C480078401E4A49087097
:1004A00006E00020484908704FF4807045494883B1
:1004B0003748007C012804D107F0D1FE00203449E0
:1004C00008744FF47A700DF01BFAD4E770B5054646
:1004D00000240DE0012104EBC40000EB40002D4A94
:1004E00002EBC00080F845100A200DF009FA641CE8
:1004F000082CEFDB06200DF03BF970BD05E002F0A3
:10050000F3FC4FF47A700DF0FBF9F8E770B5044690
:10051000002500BF0DF033FC0DF0C8FA05460020A1
:100520000CF05DFC294908600A23294A002129486A
:100530000CF0A0FE0623284A002128480CF09AFE61
:100540001523274A002127480CF094FE1123264A40
:10055000002126480CF08EFE1423254A0021254850
:100560000CF088FE1323244A002124480CF082FE5C
:100570001023234A002123480CF07CFE032007F0BF
:1005800068FE05200DF0F4F828460DF093FA70BDD2
:10059000DC2C0020E42F0020DC3800200008024082
:1005A00000003443161314058C2C00200064004016
:1005B0001C370020F8590020145800200068004023
:1005C00020000020000002409000002000000020D9
:1005D00074110020FD04000874090020CD040008F7
:1005E000742C002075040008742100207703000893
:1005F000742B002065030008742300205F020008AC
:10060000741F0020AD01000810B540F6B83007F0A7
:10061000FAFD4FF4806101F00702A24B18684FF613
:10062000FF031840A04B034343EA02209D4B186090
:1006300000BF0121072009F0A7FC01F08BFA01F0AF
:100640003DFA07F0FBFD00F04BF900F04DFB01F027
:100650008DFB01F01BFC01F0CEFA00F06DFF01F004
:1006600021F907F039FA0221904807F0BBFA0BF0A4
:100670008DF805238E4A00218E480CF0FBFD0BF00F
:10068000ACF9002010BD16E001240EE0E0B206F047
:10069000EFFC40F2DC500DF033F9204605F047FF47
:1006A00040F2DC500DF02CF9641C042CEEDB4FF40E
:1006B0007A700DF025F9E7E766E07F48807C012835
:1006C0002DD17E4890ED000A7D4880ED710A7B486F
:1006D00090ED000A7B48D0ED000A30EE600ADFEDB5
:1006E0007A0A30EEC00A7648D0EDDD0A30EE600AB4
:1006F000F3EE0E0A30EE600A7448D0ED000A30EED8
:10070000600A6F4880EDA70A32200DF0F9F86C48B6
:1007100090F8F001C0B302206749887434E066485D
:10072000807C78B9664890ED760A664880ED000ACC
:10073000634890EDAC0A654880ED000A32200DF068
:10074000DFF821E05C48807C022803D132200DF0E4
:10075000D7F819E05848807C032815D1594890ED06
:10076000000A574880ED710A584890ED000A544835
:1007700080EDA70A32200DF0C3F8514890F8F0013F
:1007800010B102204C49887497E78AE04C48007801
:10079000012849D14A4890F8D80001287ED148481C
:1007A00090ED0A0AB5EEC00AF1EE10FA02DD90ED06
:1007B0000A0A04E0424890ED0A0AB1EE400ADFED71
:1007C000440AB4EEE00AF1EE10FA2EDB3C4890ED5C
:1007D0000A0AB5EEC00AF1EE10FA02DD90ED0A0A3F
:1007E00004E0374890ED0A0AB1EE400ADFED390A1D
:1007F000B4EEE00AF1EE10FA17D8314890ED0A0A8B
:10080000B5EEC00AF1EE10FA02DD90ED0A0A04E03E
:100810002B4890ED0A0AB1EE400ADFED2D0A30EECA
:10082000600A274880ED3B0A38E0254890ED0A0A27
:10083000B5EEC00AF1EE10FA02DD90ED0A0A04E00E
:100840001F4890ED0A0AB1EE400ADFED220AB4EE2D
:10085000E00AF1EE10FA05DD9FED1F0A184880ED61
:100860003B0A1BE0164890ED0A0AB5EEC00AF1EE0D
:1008700010FA02DD90ED0A0A04E0114890ED0A0A30
:10088000B1EE400ADFED120AB4EEE00AF1EE10FA22
:1008900004D29FED120A0A4880ED3B0A32200DF087
:1008A0002FF873E70CED00E00000FA057C4800200B
:1008B000740800200D050008DC2C00203400002006
:1008C000E42F0020040000200000B4C20800002033
:1008D00000007042000016430000B4420000000017
:1008E00000B58BB00121480609F081FB01210846C3
:1008F00009F04AFB09220B21F24809F08AF9092282
:100900000C21F04809F085F902208DF81C004FF405
:10091000C050069006A9EB4809F0F0F800208DF8C9
:1009200026008DF827008DF828008DF829008DF815
:100930002A008DF82B008DF822008DF82300082066
:100940008DF8240003208DF82500ADF8200008A9BB
:10095000DD4808F0B2F902208DF8120001208DF870
:10096000130000208DF814004FF40050ADF808007B
:1009700042F22000ADF80A004AF24060ADF80C00E7
:100980004AF26060ADF80E000020ADF810000120C2
:100990008DF8150002A808F01AFA14208DF804004A
:1009A00003208DF8050000208DF8060001208DF849
:1009B000070001A808F0FDF801220221C24808F052
:1009C00005FD0BB000BD70B50446207900F00F06A0
:1009D000BE483043BE494860042008720020487277
:1009E00036B1022E25D0062E2ED0072E6DD163E013
:1009F000002009E0002100EBC00202EB4202B54BEF
:100A000003F83210411CC8B20828F3DB00250DE0C2
:100A1000002005EB4501B04A02EB8111087000226D
:100A20000221284605F062FE681CC5B2052DEFDBE9
:100A30004CE0A07AA6498872A27A04F10B01A4487E
:100A40000B300DF0CFF941E0A07AA1498872E07A2D
:100A500058280FD1207B5A280CD1E07AC872217B0C
:100A60009B4801739B4890F8F0119948417300210D
:100A7000817320E0E07A46280AD1207B532807D1F1
:100A8000A27A04F10B0192480B300DF0ABF912E0A1
:100A9000E07A4A280FD1207B44280CD1E07A8C4997
:100AA000C872217B8A4801738A4890F8A01388484D
:100AB00041730021817309E0022085498872E07A40
:100AC000C872217B8248017300E000BF00BF8049EB
:100AD0007D4808F06BFA042805D180480088401C46
:100AE0007E49088002E000207C49088070BD10B576
:100AF00086B00221744808F0D1FC00287ED001AAFB
:100B00000021714808F047FB02216F4808F061FDA1
:100B10009DF80C0004286ED19DF80D0000286AD1C4
:100B20006F490298884203D101A8FFF74CFF62E0A9
:100B30006B49891D029888425DD19DF80F005828A5
:100B400017D19DF810005A2813D10120614981F86E
:100B5000B001BDF911400A2094FBF0F000EE100A3C
:100B6000B8EEC00A084680ED710A01A8FFF72BFF16
:100B700041E09DF80F00462820D19DF81000532831
:100B80001CD1BDF811400A2094FBF0F001B252488C
:100B9000A0F8C41060420A2190FBF1F001B24E4867
:100BA000A0F8841101204C4981F8C00081F880012F
:100BB0004C49487401A8FFF706FF1CE09DF80F00A0
:100BC0004A2818D19DF81000442814D10120414929
:100BD00081F86003BDF911401E2094FBF0F01E382F
:100BE00000EE100AB8EEC00A084680EDDD0A01A842
:100BF000FFF7E9FE00BF9DF80C0000E04CE078BB79
:100C00009DF80D0060BB0198B0F5807F3BD19DF849
:100C10001000442825D19DF811004A2821D19DF8C3
:100C20000F0003280ED09DF80F1001EBC10101EB5E
:100C30004101284A02EBC10101F114000DF112013A
:100C400001F077F8BDF814109DF80F0000EBC0001C
:100C500000EB40001F4A02EBC000A0F8A21012E017
:100C600019E09DF8100056280DD19DF81100452877
:100C700009D1BDF812009DF80F1001EB4101164A91
:100C800002EB8111888040F201110198884202D163
:100C900001201449487400BF06B010BD00B585B0EE
:100CA0000221094808F0FAFB48B16A4601210648CA
:100CB00008F071FA1021044808F08BFC00BF05B061
:100CC00000BD000000000240006400401013140545
:100CD000A02C0020E42F0020DC3800201C00002085
:100CE00050413101DC2C002000B58BB00121880679
:100CF00009F07DF90121084609F046F902208DF836
:100D000018006020059005A9FE4808F0F7FE0922AA
:100D10000521FC4808F07DFF09220621F94808F06A
:100D200078FF40208DF8280002208DF8290000204F
:100D30008DF82A0001208DF82B000AA807F039FF52
:100D400041208DF8280002208DF8290001208DF81F
:100D50002A008DF82B000AA807F02BFF00208DF841
:100D600022008DF823008DF824008DF825008DF8E1
:100D700026008DF827008DF81E008DF81F00082032
:100D80008DF8200003208DF82100ADF81C0007A984
:100D9000DD4807F092FF0E208DF80E0001208DF83F
:100DA0000F0000208DF8100044F22000ADF8040080
:100DB00044F24000ADF8060044F26000ADF80800CF
:100DC0004FF48140ADF80A000020ADF80C0001207E
:100DD0008DF8110001A807F0FAFF0F208DF80E0022
:100DE00001208DF80F0000208DF8100044F2A000C3
:100DF000ADF8040044F2C000ADF8060044F2E00093
:100E0000ADF808004FF48240ADF80A000020ADF8BC
:100E10000C0001208DF8110001A807F0D8FF102068
:100E20008DF80E0001208DF80F0000208DF81000C5
:100E300045F22000ADF8040045F24000ADF8060090
:100E400045F26000ADF808004FF4A140ADF80A008B
:100E50000120ADF80C008DF8110001A807F0B7FFD4
:100E600011208DF80E0001208DF80F0000208DF864
:100E7000100045F2A000ADF8040045F2C000ADF846
:100E8000060045F2E000ADF808004FF4A240ADF8CE
:100E90000A000120ADF80C008DF8110001A807F040
:100EA00096FF12208DF80E0001208DF80F00002013
:100EB0008DF810004FF48150ADF804004FF48250CB
:100EC000ADF806004FF48350ADF808004FF484509D
:100ED000ADF80A000120ADF80C008DF8110001A852
:100EE00007F075FF13208DF80E0001208DF80F001C
:100EF00000208DF810004FF48550ADF804004FF439
:100F00008650ADF806004FF48750ADF808004FF456
:100F10008850ADF80A000120ADF80C008DF81100E2
:100F200001A807F054FF14208DF80E0000208DF862
:100F30000F0001208DF810000020ADF804004FF4E0
:100F40009040ADF806004FF6FF70ADF808004FF482
:100F50007840ADF80A000120ADF80C008DF81100C2
:100F600001A807F034FF01220221674808F02EFA99
:100F700001221021644808F029FA0BB000BD10B519
:100F800086B00221604808F089FA00287ED001AAC4
:100F900000215D4808F0FFF802215B4808F019FBCA
:100FA0000221594808F057FA0198B0F5007F73D92B
:100FB0000198B0F5027F6FD89DF80D0000286BD125
:100FC0000198401EC4B20CF04BFD04EBC40101EBD0
:100FD00041014E4A02EBC101C1F8C0009DF810006A
:100FE0009DF80F1040EA012001B204EBC40000EBB1
:100FF000400002EBC00081849DF812109DF81100A2
:1010000041EA002001B204EBC40000EB400002EB17
:10101000C00041839DF814109DF8130041EA0020A0
:1010200000B204EBC40101EB410102EBC1010883F2
:101030009DF8151004EBC40000EB400002EBC0006B
:101040008183204604F08AFE04EBC40000EB4000DC
:101050002E4901EBC00090F84600E0B9012104EBF5
:10106000C40000EB4000294A02EBC00080F84610A3
:10107000002104EBC40000EB400002EBC000A0F82C
:10108000B41004EBC40000EB400001E005E003E015
:1010900002EBC000016200BF00BF06B010BD416896
:1010A000491C4160002101730169491E0161818A67
:1010B000491C1E2291FBF2F302FB1311818270473F
:1010C00010B586B01021104808F0E8F900287DD04E
:1010D00001AA01210C4808F05EF810210A4808F026
:1010E00078FA1021084808F0B6F99DF80C00042899
:1010F0006DD19DF80D000028FAD100900298C4B27D
:1011000006E000000004024000680040E42F0020D8
:101110000CF0A6FC611E01EB4101E64A02EB8111D5
:10112000C1F88C0009210298B1EB102F7DD16946DE
:10113000B7EE000A0DF10F0007F045F8601E00EB56
:101140004000DC4901EB801090F8B80000EE900AF6
:10115000F8EE600A80EE201ABDEEC10A10EE100A09
:1011600001B2601E00EB4000D24A02EB8010818386
:101170006946B2EE040A0DF10F0007F034F8601E64
:1011800000EB4000CB4901EB801080ED090A694675
:10119000B2EE040A0DF10F0007F025F8601E00EB17
:1011A0004000C44901EB801080ED0A0A0DF11601E0
:1011B000481E00F07BFDBDF8151004EB4400BD4A4D
:1011C00002EB8010018604EB440001E0B6E0B4E0DD
:1011D000114601EB8010018E04EB440002EB8010FD
:1011E000408E081A01B204EB440002EB8010A0F814
:1011F000921004EB4400114601EB801090F894002B
:1012000060B1002104EB440002EB801080F89410E0
:1012100004EB440002EB8010A0F8921004EB4400B1
:10122000A44901EB8010418E00E085E004EB44000E
:10123000A04A02EB8010418604EB4400114601EB0A
:101240008010B0F99200002806DD04EB440001EBA9
:101250008010B0F9920007E004EB4400954901EBDF
:101260008010B0F992004042B0F5E16F21DD04EB4F
:101270004400904901EB8010B0F9921004EB440057
:101280008C4A02EB8010B0F99200002801DB0120AB
:1012900001E04FF0FF30C0EB4012C2EB0020A1EBA9
:1012A000001001B204EB4400824A02EB8010A0F867
:1012B000921004EB44007F4901EB8010016A04EBBB
:1012C00044007C4A02EB8010B0F99200014404EB28
:1012D000440002EB8010016204EB4400114601EB74
:1012E0008010816804EB440002EB8010006A091A48
:1012F00004EB440002EB8010C0F8A01004EB4400A3
:10130000114601EB80104078B0B104EB440001EBD2
:10131000801090ED0A0A04EB440001EB801080ED90
:10132000260A04EB440001EB8010016A04EB440040
:1013300002EB8010C0F89C1000BF00BF06B010BDCB
:1013400070B5044604EBC40000EB40005A4901EBC1
:10135000C000B0F90400002808DD04EBC40000EB75
:10136000400001EBC000B0F9040009E004EBC40048
:1013700000EB4000504901EBC000B0F904004042CE
:1013800004EBC40101EB41014B4A02EBC101B1F88E
:10139000D010884220DD04EBC40000EB4000114671
:1013A00001EBC000B0F90400002801DB012001E0DE
:1013B0004FF0FF3004EBC40101EB41013E4A02EB68
:1013C000C101B1F8D010484300B204EBC40101EBF5
:1013D000410102EBC101888004EBC40000EB400036
:1013E000354911F8300040B9002004EBC40101EB8D
:1013F0004101314A02EBC1018880042C04DA4FF428
:1014000000702E49086003E040F2FF102B4908608D
:1014100000202A49487208720820887204F00B00E4
:10142000450004EBC40000EB4000234901EBC00081
:10143000818822480B30415302466B1CD118501949
:1014400000F034FC032C01D0072C03D11B491C48AD
:1014500007F0ACFD70BD70B505460C464FF4823008
:1014600018494860042008720020487204208872DD
:10147000C872012C06D18F21124801734E2141738D
:10148000857311E034B985210E48017346214173FB
:10149000857309E0022C07D18E210A4801734F2180
:1014A000417357218173C5730649054807F07EFDD6
:1014B00070BD0000DC380020E42F0020B42C002098
:1014C00000680040C82C002030B589B004460D46A5
:1014D0000121084608F09CFDA8B2ADF81800079459
:1014E0000020ADF82000ADF81A0006A9114808F058
:1014F00036FF6020ADF804000120ADF806000220A0
:10150000ADF8100001A90B4808F0BEFF01221146FA
:10151000084809F0C5FB0821064809F042F90121F5
:10152000044809F096FB0121024808F0A1FF09B028
:1015300030BD0000000001401FB50121084608F041
:1015400056FDA720ADF80400092002900020ADF858
:101550000600ADF80C0001A94FF0804008F0FFFE36
:1015600001221146900709F09BFB0121880708F032
:101570007FFF1C208DF8000003208DF80100012062
:101580008DF802008DF80300684607F012FB1FBDBE
:1015900070B5044604EB4400BE4901EB80100078AE
:1015A000002864D004EB440001EB801090F8A80000
:1015B00000285CD00CF054FA04EB4401B54A02EB6D
:1015C0008111D1F88C10411A04EB440002EB801019
:1015D000B0F8900081420ED904EB4400114601EBB3
:1015E000801090F88800401C04EB440102EB81114C
:1015F00081F8880007E0002004EB4401A54A02EBD3
:10160000811181F8880004EB4400A24901EB8010AD
:1016100090F88800642812DD012104EB44009D4A03
:1016200002EB801080F88510032242EA041292B285
:1016300042F48071984A506800F010FB17E00021D6
:1016400004EB4400934A02EB801080F885100322DB
:1016500042EA041292B242F480718F4A506800F05C
:10166000EFFA05468C494868294600F0D3FA70BD68
:1016700070B5044604EBC40000EB4000874911F844
:101680003000012867D104EBC40000EB400001EBFF
:10169000C00090F8A500002878D00CF0E1F904EB28
:1016A000C40101EB41017D4A02EBC101D1F8C01038
:1016B000401A40F2DC51884213D304EBC40000EB23
:1016C0004000114601EBC00090F8BF00401CC1B2C1
:1016D00004EBC40000EB400002EBC00080F8BF1038
:1016E00009E0002104EBC40000EB40006B4A02EB70
:1016F000C00080F8BF1004EBC40000EB4000674955
:1017000001EBC00090F8430030BB04EBC40000EBD9
:10171000400001EBC00090F8BF1004EBC40000EBE8
:1017200040005E4A02EBC000B0F8C400814213DD05
:10173000012104EBC40000EB400002EBC00080F884
:101740004310012242EA041292B242F48071524ADA
:10175000506800F083FA19E0002104EBC40000EBAC
:1017600040004E4A02EBC00080F84310012242EADA
:10177000041292B242F48071474A506800F060FA55
:10178000054645494868294600F044FA70BD10B541
:101790000121880709F09BFA012811D1002404E0F7
:1017A0002046FFF765FF601CC4B2082CF8DB00245C
:1017B00004E02046FFF7ECFE601CC4B2042CF8DB0A
:1017C0000121880709F094FA10BD70B5044604EBB6
:1017D0008400334901EB001090F82C00002857D00A
:1017E0000CF03EF904EB84012D4A02EB0111096C67
:1017F000411A04EB840002EB0010B0F8440081426F
:101800000DD904EB8400114601EB0010808F401CC1
:1018100081B204EB840002EB0010818706E0002116
:1018200004EB84001E4A02EB0010818704EB840065
:101830001B4901EB0010808FB0F57A7F11DD01218B
:1018400004EB8400164A02EB0010C177621C0223ED
:1018500043EA021242F480710F4A506800F0FEF928
:1018600016E0002104EB84000D4A02EB0010C17762
:10187000621C022343EA021242F48071064A506855
:1018800000F0DEF9054604494868294600F0C2F92F
:1018900070BD0000DC38002020000020E42F002074
:1018A0001C3700201FB50121022008F0A0FB5320A7
:1018B000ADF8040040F2E73002900020ADF80C00D3
:1018C000ADF8060001A9754808F049FD1D208DF806
:1018D000000001208DF8010000208DF80200012099
:1018E0008DF80300684607F064F9012211466B4841
:1018F00009F0D6F90121694808F0BAFD1FBD70B59D
:101900000121664809F0E3F9012873D1002435E08C
:1019100004EBC40000EB4000614911F8300028B32B
:1019200004EBC40000EB400001EBC0004078F0B1D4
:1019300004EBC40000EB400001EBC00080780128FC
:1019400006D0022805D004280BD005280DD104E0CC
:101950000CE020B203F09EFC08E020B203F0F6FC9D
:1019600004E020B203F0EDFE00E000BF02E020B290
:1019700003F0ECFCE0B2FFF7E3FC641C082CC7DBCF
:1019800001247BE004EB4400464901EB8010007821
:1019900000286BD004EB440001EB8010407850B37A
:1019A00004EB440001EB8010C07806284DD2DFE83C
:1019B00000F0031223384C4704EB4401394A02EB90
:1019C0008111D1ED050AB0EE600A611CC8B2012197
:1019D00005F0EFFE3AE004EB4401324A02EB8111DC
:1019E000D1ED030AB0EE600A611CC8B2012105F016
:1019F00030FF2BE04CE02AE004EB4402294B03EBE0
:101A00008212928804EB4403264D05EB831393F86E
:101A1000B83012FB03F1621CD0B2012205F08BFC3E
:101A200014E004EB44011F4A02EB8111D1ED290AB5
:101A3000B0EE600A611CC8B2012105F0C5FF05E0E7
:101A4000611CC8B205F008FE00E000BF15E004EB21
:101A50004401144A02EB8111D1ED290AB0EE600A6B
:101A6000611CC8B2012105F0AFFF06E0611CC8B2DD
:101A700001219FED0D0A05F0ECFE641C032C81DBB7
:101A80000A490B4806F030F80A490B4806F02CF8D2
:101A90000121024809F02CF970BD0000000400404B
:101AA000E42F0020DC380020000000004C5400200F
:101AB0000064004030560020006800401CB5012141
:101AC000022008F061FA4FF44070009001208DF878
:101AD000040000208DF8060002208DF805006946FC
:101AE0001A4808F00BF84FF48071184808F082F893
:101AF0004FF40071154808F07FF81CBD70B504461E
:101B0000112C00DD11241248055D00261AE04FF467
:101B100080710E4808F070F805F0010028B14FF40C
:101B200000710A4808F066F804E04FF400710748B5
:101B300008F062F84FF48071044808F05BF86D100B
:101B4000701CC6B2082EE2DB70BD0000000402402B
:101B500044F500081CB50020009003460122F02146
:101B600001901F4806F0BAFE1CBD10B510201C499C
:101B700048834FF4FA600BF0C3FE202018494883D5
:101B80004FF4FA600BF0BCFE4020154948834FF437
:101B9000FA600BF0B5FE8020114948834FF4FA60DB
:101BA0000BF0AEFE10200E4908834FF4FA600BF0E4
:101BB000A7FE20200A4908834FF4FA600BF0A0FE2C
:101BC0004020074908834FF4FA600BF099FE80200B
:101BD000034908834FF4FA600BF092FE10BD000039
:101BE0000000024010B508200DF076FC04460020ED
:101BF0006060204610BD10B503F03AF805F08AFA8F
:101C000005F038FFFFF7EEFF54494860012006F069
:101C100020FB10BD70B506460C46354600E06D68E9
:101C200015B16868A042FAD14CB16068686020467E
:101C30000DF02AFC49480078401E4849087070BDE4
:101C400002460B46114605E00888984201D1084635
:101C5000704749680029F7D10020F9E72DE9F041E4
:101C6000074688463C4641462046FFF7E9FF08B153
:101C7000BDE8F081002602E06468701CC6B23748F7
:101C80000078B04201DD002CF6D16CB108200DF0D7
:101C900023FC0546A5F800806068686065602F48F1
:101CA0000078401C2D49087000BFE1E700220A7847
:101CB00003780B700270704710B52DED028B04464F
:101CC00094ED000A10EE101A08460CF090FA41EC60
:101CD000180B9FED231BB0EE480AF0EE680A0DF0DA
:101CE000C9FB00EE100AB8EEC00A84ED000A94EDBC
:101CF000000AB5EEC00AF1EE10FA07D294ED000A20
:101D0000DFED190A30EE200A84ED000ABDEC028BEB
:101D100010BD90ED000ABDEEC00A10EE102A0A7048
:101D200090ED000ABDEEC00A10EE102A120A4A70A9
:101D3000704770B52DED028B05460C46617809029F
:101D400009B2227841EA02000CF008FA41EC180BC3
:101D50000CF090FA2860BDEC028B70BD20000020D2
:101D600000000000008076400000B4431CB54048ED
:101D7000006840F010003E4908603D481438006893
:101D800040F480003A491439086001200221002300
:101D90000A46CDE900104FF4C061364806F09EFDBA
:101DA00007220921334806F079FD07220A2131482C
:101DB00006F074FD40F2D9202F4908814FF40370DA
:101DC00088810846008820F020000880032325220F
:101DD0000121062006F0D4FC4FF48070274B264AE0
:101DE000121D04210090264806F00EFC012210214D
:101DF000234807F0AAFD032346220021072006F00E
:101E0000BFFC1D48808A40F080001B49888208463C
:101E1000808940F4005088811CBD70B504460D4691
:101E20001848807B78B92A46214614480BF0DAFF1F
:101E30002946134807F01DFD0121114807F0F8FC61
:101E400001201049887370BD10B50F490C4807F088
:101E500099FD01280AD10C49094807F062FD0A4999
:101E6000074807F0B9FD00200649887310BD00003F
:101E7000443802400000024000100140F32C0020D2
:101E8000B8640240DC2C00200080002800B597B028
:101E90000121084608F078F80121480408F0A7F865
:101EA0000121480508F070F807220221F64807F0E2
:101EB000B0FE07220321F44807F0ABFE0C2011907E
:101EC00002208DF8480000208DF84A0003208DF88C
:101ED000490000208DF84B0011A9EB4807F00EFED9
:101EE0004FF4E13013900020ADF85000ADF85200EF
:101EF000ADF85400ADF858000C20ADF8560013A909
:101F0000E24809F01FF8012240F22551DF4809F0AC
:101F100057F926208DF8400004208DF8410001205B
:101F20008DF842008DF8430010A806F042FED84814
:101F300007F0A2FB4FF000600190002005904020C8
:101F40000490D4480390D148001D029000150790DA
:101F500000200690099008900A904FF440300B90B2
:101F600000200C9001200D9000200F900E9001A9F0
:101F7000C74807F023FCC849C54807F0D2FCC6494A
:101F8000C34807F029FD01221021C14807F0DDFCFC
:101F900011208DF8400007208DF8410001208DF8B8
:101FA00042008DF8430010A806F003FE01228021B4
:101FB000B64809F0FCF80121B44809F04BF817B015
:101FC00000BD10B5B449B24807F0DCFC01280AD1C5
:101FD000B149AF4807F0A5FCAF49AD4807F0FCFC9C
:101FE0000020AE49C87310BD10B52DED048B002440
:101FF00040F22531A54809F01EF950B1A34809F077
:1020000058F80020A64908702021A6480BF003FFCD
:10201000F1E340F225519D4809F00DF90028F7D071
:1020200020219A4809F0FEF840F22551974809F01E
:1020300039F9964809F03DF8C4B29948007800F0A3
:10204000400008B39648007800F0800020BBFF2CC9
:1020500006D19348007840F08000914908701BE059
:102060008F48007800F03F018E4844548C48007837
:10207000401C8B4908700846007800F03F00282873
:102080000ADD0020087007E0EE2C05D184480078B6
:1020900040F04000824908708148007800F08000DC
:1020A0000028B5D0804890F82002122835D10120B0
:1020B00006F0CFF87C4890F8210210282BD2DFE8F8
:1020C00000F0080C10141A20212A22232425262788
:1020D00028290120714988741EE003206F49887403
:1020E0001AE000206D49887416E04FF480716F4843
:1020F00007F082FD10E04FF480716C4807F07AFD24
:102100000AE009E008E007E006E005E004E003E09B
:1021100002E001E000E000BF00BF634890F8210248
:10212000012804D1604890F82302614908705E4894
:1021300090F82302082876D2DFE810F0080041006A
:102140000202AC0354047500F9050506564890F8E0
:102150002502052804D0092818D00A282CD119E016
:10216000012080F3138800BF00BFBFF34F8F514899
:10217000006800F4E06050490843001D4D490860C4
:10218000BFF34F8F00BF00BF00BFFDE701204349F1
:10219000087412E04348C01D0CF06EFCB0EE408A9B
:1021A000F0EE608A51EC180B0CF064F843490860BB
:1021B000012006F04EF800E000BF00BF69E33A4896
:1021C00090F8250220287DD2DFE800F07C7DD6F053
:1021D000EF87F1EDEC1E96EBEA2EA6E9E83EB6E7B6
:1021E000E64DC6E5E47C7C1091FCE2E1002008E0CD
:1021F000002100EBC00202EB4202314B03F8321027
:10220000401C0828F4DB99E12648C01D0CF034FC82
:10221000B0EE408AF0EE608A51EC180B0BF0CEFF66
:10222000274988708AE1F4E31E48C01D0CF024FCA5
:10223000B0EE408AF0EE608A51EC180B0BF09FFF75
:1022400001B21F48C18079E11648C01D0CF014FC92
:10225000B0EE408AF0EE608A51EC180B0CF00AF8F0
:10226000174948616AE10F48C01D0CF005FCB0EE4B
:10227000408AF0EE608A51EC180B0BF09FFF81B2A0
:102280000F48A0F8A21059E10000024000440040AD
:10229000A0600240132E002000802020DC2C0020B3
:1022A00029000020132F0020F32C002000080240FA
:1022B000280000200CED00E00000FA0534000020AA
:1022C000E42F002039E1F74890F8280208B10120F6
:1022D00000E00020F449087030E1F24890F828024C
:1022E00008B1012000E00020EF49487026E10121FB
:1022F000ED4880F8451021E1EC480CF0BDFBB0EE54
:10230000408AF0EE608A51EC180B0BF057FFC1B217
:10231000E54880F8DA1011E1E4480CF0ADFBB0EECE
:10232000408AF0EE608A51EC180B0BF028FF01B2E6
:10233000DD48A0F8DE1001E1DC480CF09DFBB0EEBA
:10234000408AF0EE608A51EC180B0BF093FF0146C7
:10235000D548C0F8EC10F1E0D4480CF08DFBB0EE9D
:10236000408AF0EE608A51EC180B0BF027FF81B227
:10237000CD48A0F87A11E1E0CA4890F8280208B1E7
:10238000012000E00020C84981F8D800D6E0CFE065
:1023900073E017E0A6E04AE094E038E082E026E04F
:1023A00070E014E0B9E05DE001E0ABE04FE0BD4873
:1023B00090F8280208B1012100E00021BA4880F815
:1023C000D910BBE00121B84880F81D11B6E0B7482C
:1023D0000CF052FBB0EE408AF0EE608A51EC180B24
:1023E0000BF0ECFEC1B2B04880F8B211A6E0AF48E5
:1023F0000CF042FBB0EE408AF0EE608A51EC180B14
:102400000BF0BDFE01B2A848A0F8B61196E0A748AF
:102410000CF032FBB0EE408AF0EE608A51EC180B03
:102420000BF028FF0146A048C0F8C41186E09F4881
:102430000CF022FBB0EE408AF0EE608A51EC180BF3
:102440000BF0BCFE81B29848A0F8521276E0954895
:1024500090F8280208B1012000E00020924981F89C
:10246000B0016BE08F4890F8280208B1012100E02C
:1024700000218D4880F8B11160E001218A4880F880
:10248000F5115BE089480CF0F7FAB0EE408AF0EE07
:10249000608A51EC180B0BF091FEC1B2824880F8B3
:1024A0008A124BE081480CF0E7FAB0EE408AF0EE79
:1024B000608A51EC180B0BF062FE01B27A48A0F86A
:1024C0008E123BE079480CF0D7FAB0EE408AF0EE7D
:1024D000608A51EC180B0BF0CDFE01467248C0F833
:1024E0009C122BE071480CF0C7FAB0EE408AF0EE77
:1024F000608A51EC180B0BF061FE81B26A48A0F8BB
:102500002A131BE0674890F8280208B1012000E078
:102510000020654981F8880210E0624890F828029E
:1025200008B1012100E000215F4880F8891205E030
:1025300001215D4880F8CD1200E000BF00BF3DE6FC
:10254000584890F82502202870D2DFE800F06F5E2E
:10255000C1F8F769CCF6F51E7ADCF42E8AF9F23E62
:102560009AF1F04EB1EFEE6F6F1075D7EDEC0020E1
:1025700008E0002100EBC00202EB42024A4B03F8E4
:102580003210401C0828F4DB82E148480CF074FA51
:10259000B0EE408AF0EE608A51EC180B0BF00EFEA4
:1025A000C1B2414880F8621372E140480CF064FA0D
:1025B000B0EE408AF0EE608A51EC180B0BF0DFFDB4
:1025C00001B23948A0F8661362E138480CF054FAB9
:1025D000B0EE408AF0EE608A51EC180B0BF04AFE28
:1025E00001463148C0F8741352E130480CF044FA07
:1025F000B0EE408AF0EE608A51EC180B0BF0DEFD75
:1026000081B22948A0F8021442E1264890F8280235
:1026100008B1012000E00020234981F8600337E180
:10262000204890F8280210B1012101E02FE100219B
:102630001D4880F861132BE101211B4880F8A51388
:1026400026E11A480CF018FAB0EE408AF0EE608AE3
:1026500051EC180B0BF0B2FDC1B2134880F83A14DC
:1026600016E112480CF008FAB0EE408AF0EE608AEB
:1026700051EC180B0BF083FD01B20B48A0F83E148F
:1026800006E10A480CF0F8F9B0EE408AF0EE608AF4
:1026900051EC180B0BF0EEFD01460348C0F84C144A
:1026A000F6E00000F32C0020E42F00201A2F002079
:1026B000FB480CF0E1F9B0EE408AF0EE608A51EC94
:1026C000180B0BF07BFD81B2F648A0F8DA14DFE0BE
:1026D000F54890F8280208B1012000E00020F149F7
:1026E00081F83804D4E0F04890F8280208B10121BC
:1026F00000E00021EB4880F83914C9E00121E948E5
:1027000080F87D14C4E0E6480CF0B6F9B0EE408ADB
:10271000F0EE608A51EC180B0BF050FDC1B2E148AD
:1027200080F81215B4E0ADE050E085E028E073E0F9
:1027300016E061E004E04EE099E03CE08CE02FE040
:10274000D7480CF099F9B0EE408AF0EE608A51EC6F
:10275000180B0BF014FD01B2D248A0F8161597E043
:10276000CF480CF089F9B0EE408AF0EE608A51EC67
:10277000180B0BF07FFD0146CA48C0F8241587E00E
:10278000C7480CF079F9B0EE408AF0EE608A51EC5F
:10279000180B0BF013FD81B2C248A0F8B21577E018
:1027A000C14890F8280208B1012000E00020BD498E
:1027B00081F810056CE0BC4890F8280208B10121AE
:1027C00000E00021B74880F8111561E00121B5480B
:1027D00080F855155CE0B2480CF04EF9B0EE408A36
:1027E000F0EE608A51EC180B0BF0E8FCC1B2AD487A
:1027F00080F8EA154CE04AE3A9480CF03DF9B0EE48
:10280000408AF0EE608A51EC180B0BF0B8FC01B274
:10281000A448A0F8EE153BE0A1480CF02DF9B0EE6D
:10282000408AF0EE608A51EC180B0BF023FD014654
:102830009C48C0F8FC152BE099480CF01DF9B0EE4F
:10284000408AF0EE608A51EC180B0BF0B7FC81B2B5
:102850009448A0F88A161BE0934890F8280208B123
:10286000012000E000208F4981F8E80510E08E4843
:1028700090F8280208B1012100E00021894880F881
:10288000E91505E00121874880F82D1600E000BF1A
:1028900000BFF3E2844890F82502801E11286ED212
:1028A000DFE800F01A29419D59639D6E9D7881896A
:1028B0008F969D9D09007A480CF0DEF8B0EE408AB4
:1028C000F0EE608A51EC180B0BF078FC7749087039
:1028D000012005F0BEFC83E001220221734800784C
:1028E000401C03F003FF0122114670480078401C91
:1028F00003F0FCFE74E06A480CF0BEF8B0EE408ACB
:10290000F0EE608A51EC180B0BF039FC01B267480D
:10291000007800EB8000664A02EB00100181012084
:1029200005F097FC5CE05E480CF0A6F8B0EE408A3B
:10293000F0EE608A51EC180B0BF021FC00B25B4901
:10294000097801EB81015A4A02EB011188800120CC
:1029500005F07FFC44E0022154480078401C03F05D
:1029600034FE012005F075FC3AE002214F48007862
:10297000401C03F049FF012005F06BFC30E02EE025
:1029800002214A480078401C04F09AF9012005F021
:1029900060FC25E045480078401C03F0E8FC01207D
:1029A00005F057FC1CE00022022140480078401C42
:1029B00003F09CFE14E03D480078401C04F005FB49
:1029C0000EE0022139480078401C04F0C8F807E006
:1029D000022136480078401C03F0C5FF00E000BF2C
:1029E00000BF4BE2304890F82502801E122867D2C3
:1029F000DFE800F0091D3043677889A0B7CFEFED1D
:102A0000ECEBEAE9E8E7284890F8280210B1012049
:102A100001E032E200202749097801EB4101264A12
:102A200002EB81110870012005F013FC7DE11E48C6
:102A300090F8280208B1012000E000201F49097821
:102A400001EB41011C4A02EB81110870012005F0E5
:102A500000FC6AE1144890F8280208B1012000E067
:102A600000201449097801EB4101134A02EB81115E
:102A70004870012005F0EDFB57E10B4890F8280263
:102A800008B1012000E000200C49097801EB410168
:102A9000094A02EB81114870012005F0DAFB44E19C
:102AA0001A2F0020E42F0020F32C00202A00002001
:102AB0001C3700202B000020DC3800202C000020D8
:102AC00032E1FD480BF0D8FFB0EE408AF0EE608AAC
:102AD00051EC180B0BF072FBF8490870012005F05F
:102AE000B8FB22E1F4480BF0C7FFB0EE408AF0EEED
:102AF000608A51EC180B0BF061FBF1490870012062
:102B000005F0A7FB11E1EC480BF0B6FFB0EE408AF0
:102B1000F0EE608A51EC180B0BF050FBE749097896
:102B200001EB4101E74A02EB8111C870012005F079
:102B300090FBFAE0E0480BF09FFFB0EE408AF0EE29
:102B4000608A51EC180B0BF039FBDD49097801EB79
:102B50004101DC4A02EB8111C870012005F079FBCC
:102B6000E3E0D5480BF088FFB0EE408AF0EE608AD3
:102B700051EC180B0BF003FB00B2D049097801EBC4
:102B80004101D04A02EB81118880012005F061FBF0
:102B9000CBE0C9480BF070FFB0EE408AF0EE608ADF
:102BA00051EC180B0BF0EBFA00B2C549097801EBB8
:102BB0004101C44A02EB81118880012005F049FBE4
:102BC000B3E0A0E09BE080E065E04DE035E01AE096
:102BD000FFE7B9480BF050FFB0EE408AF0EE608A94
:102BE00051EC180B0BF046FB00EE100AB3480078CE
:102BF00000EB4000B34901EB801080ED040A012096
:102C000005F027FB91E0AC480BF036FFB0EE408AB0
:102C1000F0EE608A51EC180B0BF02CFB00EE100A62
:102C2000A748007800EB4000A64901EB801080ED3A
:102C3000040A012005F00DFB77E09F480BF01CFF14
:102C4000B0EE408AF0EE608A51EC180B0BF012FBEC
:102C50009A49097801EB41019A4A02EB81114861D6
:102C6000012005F0F6FA60E093480BF005FFB0EEA6
:102C7000408AF0EE608A51EC180B0BF0FBFA904999
:102C8000097801EB41018F4A02EB81114861012073
:102C900005F0DFFA49E088480BF0EEFEB0EE408A1E
:102CA000F0EE608A51EC180B0BF0E4FA00EE100A1B
:102CB0008248007800EB4000824901EB801080EDF3
:102CC000030A012005F0C5FA2FE07B480BF0D4FE83
:102CD000B0EE408AF0EE608A51EC180B0BF0CAFAA5
:102CE00000EE100A7648007800EB4000754901EBD1
:102CF000801080ED030A012005F0ABFA15E00120F9
:102D00007149487411E06C480BF0B6FEB0EE408A91
:102D1000F0EE608A51EC180B0BF0ACFA6B490860CE
:102D2000012005F096FA00E000BF00BFA6E0684869
:102D300090F8250230B1664A92F8281292F82502DE
:102D4000FEF789FB9AE0624890F82502801E06286B
:102D50007DD2DFE800F003141D213B6456480BF0E0
:102D60008BFEB0EE408AF0EE608A51EC180B0BF04F
:102D700006FA58490860012005F06BFA7BE0012152
:102D80000846FEF768FB00210120FEF764FB72E0B5
:102D900001204D4948746EE001210846FEF75BFBB7
:102DA0004C4890ED000AB8EEC00A4B4880ED710A1D
:102DB00000210120FEF74FFB9FED480A464880EDB9
:102DC000710A01210846FEF746FB54E03A480BF031
:102DD00053FEB0EE408AF0EE608A51EC180B0BF017
:102DE00049FA01463748C0F89411012005F031FA3C
:102DF00031480BF041FEB0EE409AF0EE609A51EC93
:102E0000190B81F0004141EC180B0BF033FA01462D
:102E10002C48C0F8D410012005F01BFA2BE02648FE
:102E20000BF02AFEB0EE408AF0EE608A51EC180BEF
:102E30000BF0A5F901B22348A0F88411012005F098
:102E400008FA1D480BF018FEB0EE409A00E011E0C1
:102E5000F0EE609A51EC190B81F0004141EC180B37
:102E60000BF08DF901B21748A0F8C410012005F04D
:102E7000F0F900E000BF00BF00E000BF00BF00208D
:102E80001749087020210C48C01F0AF0C4FFBDEC90
:102E9000048B10BD10B504460B48C07B50B92146C9
:102EA000104806F0E6FC01210E4806F0C1FC0120A6
:102EB0000549C87310BD00001A2F00202B00002008
:102EC0002C000020DC380020DC2C0020300000200A
:102ED000F32C002038000020E42F00200000000028
:102EE00029000020A060024000B585B000200490B9
:102EF000EE220499481C0490FE484254B1220499E1
:102F0000481C0490FB48425410220499481C049029
:102F1000F848425400220499481C0490F548425451
:102F20000499481C0490F34842540499481C0490A6
:102F3000F048425406220499481C0490ED4842543B
:102F400001220498411CC9B20491EA490A54FF22A3
:102F50000498411CC9B20491E6490A54FC22049821
:102F6000411CC9B20491E3490A54FF220498411C50
:102F7000C9B20491DF490A540498411CC9B20491B2
:102F8000DC490A54DC480078012809D002287DD0A9
:102F9000032801F03982042841F01D8601F01BBB93
:102FA000EE220498411CC9B20491D2490A54B122BC
:102FB0000498411CC9B20491CE490A5412220498C3
:102FC000411CC9B20491CB490A5400220498411C07
:102FD000C9B20491C7490A5401220498411CC9B2DC
:102FE0000491C4490A54C548407800287ED0C3489B
:102FF00080780028FAD000220498411CC9B20491BC
:10300000BC490A5409220498411CC9B20491B94927
:103010000A5400220498411CC9B20491B5490A54CB
:10302000B64880780246B6A10390B6480BF00EFD74
:10303000B4480AF0FBFEC2B20498411CC9B2049124
:10304000AC490A54084604990844AE4903900AF072
:10305000F4FEAC480AF0EAFE04990844C0B20490B9
:1030600000220498411CC9B20491A2490A540D22BD
:103070000498411CC9B204919E490A540022049844
:10308000411CC9B204919B490A5400E0E7E39B4804
:10309000B0F91A0002469AA103909A480BF0D6FCA8
:1030A00098480AF0C3FEC2B20498411CC9B2049108
:1030B00090490A54084604990844924903900AF03A
:1030C000BCFE90480AF0B2FE04990844C0B20490D5
:1030D00000220498411CC9B2049186490A54112265
:1030E0000498411CC9B20491824900E0ACE00A5442
:1030F00000220498411CC9B204917E490A547F48B9
:10310000806A01900BF073F8CDE902019DED020B8E
:1031100053EC102B7CA17B480BF098FC79480AF00B
:1031200085FEC2B20498411CC9B2049171490A5487
:10313000084604990844734903900AF07EFE7148DA
:103140000AF074FE04990844C0B204900022049866
:10315000411CC9B2049167490A5415220498411CC4
:10316000C9B2049163490A5400220498411CC9B2AF
:10317000049160490A546148B0F8A200024660A177
:10318000039060480BF062FC5E480AF04FFEC2B24A
:103190000498411CC9B2049156490A54084604993E
:1031A0000844584903900AF048FE56480AF03EFE8B
:1031B00004990844C0B2049000220498411CC9B28A
:1031C00004914C490A5401220498411CC9B204914B
:1031D00048490A5400220498411CC9B20491454947
:1031E0000A5401220498411CC9B2049141490A546D
:1031F000424802780498411CC9B204913D490A54DE
:1032000000220498411CC9B204913A490A5405228B
:103210000498411CC9B2049136490A54002204980A
:10322000411CC9B2049133490A5401220498411C3B
:10323000C9B204912F490A54304842780498411C7D
:10324000C9B204912B490A542C4890F8D90000289F
:103250007ED02A4890F8DA000028F9D0002204989D
:10326000411CC9B2049123490A540A220498411C02
:10327000C9B204911F490A5400220498411CC9B2E2
:1032800004911C490A541D4890F8DA0002461CA11A
:1032900003901C480BF0DAFB1A480AF0C7FDC2B2D3
:1032A0000498411CC9B2049112490A540846049971
:1032B0000844144903900AF0C0FD12480AF0B6FD14
:1032C00004990844C0B2049000220498411CC9B279
:1032D000049108490A540E220498411CC9B2049171
:1032E00004490A5400220498411CC9B204910149BE
:1032F0000A540DE0132E002028000020E42F0020A7
:1033000025640000732F0020252E31660000000088
:10331000FE48B0F9F2000246AFF21C010390FC48EF
:103320000BF094FBFA480AF081FDC2B20498411CEC
:10333000C9B20491F7490A54084604990844F4496B
:1033400003900AF07AFDF2480AF070FD049900E05B
:10335000C1E00844C0B2049000220498411CC9B2E4
:103360000491EC490A5412220498411CC9B20491F8
:10337000E8490A5400220498411CC9B20491E54965
:103380000A54E248D0F8000101900AF030FFCDE97C
:1033900002019DED020B53EC102BAFF29401DC48BF
:1033A0000BF054FBDA480AF041FDC2B20498411C0C
:1033B000C9B20491D7490A54084604990844D4492B
:1033C00003900AF03AFDD2480AF030FD049908440F
:1033D000C0B2049000220498411CC9B20491CD49A6
:1033E0000A5416220498411CC9B20491C9490A54CE
:1033F00000220498411CC9B20491C6490A54C3482A
:10340000B0F87A010246AFF208110390C0480BF001
:103410001DFBBF480AF00AFDC2B20498411CC9B2A4
:103420000491BC490A54084604990844B8490390D9
:103430000AF003FDB6480AF0F9FC04990844C0B24A
:10344000049000220498411CC9B20491B1490A5465
:1034500002220498411CC9B20491AE490A540022C8
:103460000498411CC9B20491AA490A540122049843
:10347000411CC9B20491A7490A54A44890F8D82025
:103480000498411CC9B20491A2490A54002204982C
:10349000411CC9B204919F490A5406220498411C58
:1034A000C9B204919B490A5400220498411CC9B234
:1034B000049198490A5401220498411CC9B204910C
:1034C00094490A54914890F8D9200498411CC9B2F3
:1034D000049190490A548D4890F8B10100287DD09C
:1034E0008A4890F8B2010028F9D000220498411CC3
:1034F000C9B2049187490A540B220498411CC9B2ED
:10350000049184490A5400220498411CC9B20491D0
:1035100080490A547D4890F8B2010246AFF220215A
:1035200003907B480BF092FA79480AF07FFCC2B214
:103530000498411CC9B2049176490A54084604997A
:103540000844734903900AF078FC71480AF06EFC55
:1035500004990844C0B2049000220498411CC9B2E6
:1035600004916C490A540F220498411CC9B2049179
:1035700068490A5400220498411CC9B20491654963
:103580000A546248B0F9CA010246AFF28C21039096
:103590005F480BF05BFA5E480AF048FCC2B2049840
:1035A000411CC9B204915B490A5408460499084475
:1035B000574903900AF041FC55480AF037FC04993A
:1035C0000844C0B2049000220498411CC9B204917E
:1035D00050490A5413220498411C00E0BBE0C9B2D0
:1035E00004914C490A5400220498411CC9B2049128
:1035F00048490A544548D0F8D80101900AF0F7FD2F
:10360000CDE902019DED020B53EC102BAFF2083116
:103610003F480BF01BFA3E480AF008FCC2B204987F
:10362000411CC9B204913B490A5408460499084414
:10363000374903900AF001FC35480AF0F7FB04997A
:103640000844C0B2049000220498411CC9B20491FD
:1036500030490A5417220498411CC9B204912D49DB
:103660000A5400220498411CC9B2049129490A5401
:103670002648B0F852020246AFF27C31039024484B
:103680000BF0E4F922480AF0D1FBC2B20498411CC5
:10369000C9B204911F490A540846049908441C49B8
:1036A00003900AF0CAFB1A480AF0C0FB04990844C8
:1036B000C0B2049000220498411CC9B2049115497B
:1036C0000A5403220498411CC9B2049111490A54B6
:1036D00000220498411CC9B204910E490A540122E7
:1036E0000498411CC9B204910A490A54074890F849
:1036F000B0210498411CC9B2049106490A54002221
:103700000498411CC9B20491024905E0E42F00204D
:10371000732F0020132E00200A5407220498411C06
:10372000C9B20491FE490A5400220498411CC9B24E
:103730000491FB490A5401220498411CC9B2049126
:10374000F7490A54F74890F8B1210498411CC9B2CE
:103750000491F3490A54F34890F8890200287DD077
:10376000F04890F88A020028F9D000220498411C01
:10377000C9B20491EA490A540C220498411CC9B206
:103780000491E7490A5400220498411CC9B20491EB
:10379000E3490A54E34890F88A020246AFF2A04196
:1037A0000390E1480BF052F9DF480AF03FFBC2B248
:1037B0000498411CC9B20491D9490A540846049995
:1037C0000844D94903900AF038FBD7480AF02EFB89
:1037D00004990844C0B2049000220498411CC9B264
:1037E0000491CF490A5410220498411CC9B2049193
:1037F000CB490A5400220498411CC9B20491C8491B
:103800000A54C848B0F9A2020246AFF20C51039024
:10381000C5480BF01BF9C4480AF008FBC2B2049873
:10382000411CC9B20491BE490A540846049908448F
:10383000BD4903900AF001FBBB480AF0F7FA04996E
:103840000844C0B2049000220498411CC9B20491FB
:10385000B3490A5414220498411C01E0B5E0B6E0D3
:10386000C9B20491AE490A5400220498411CC9B25D
:103870000491AB490A54AB48D0F8B00201900AF069
:10388000B6FCCDE902019DED020B53EC102BAFF21B
:103890008851A5480BF0DAF8A3480AF0C7FAC2B27B
:1038A0000498411CC9B204919D490A5408460499E0
:1038B00008449D4903900AF0C0FA9B480AF0B6FA02
:1038C00004990844C0B2049000220498411CC9B273
:1038D000049193490A5418220498411CC9B20491D6
:1038E0008F490A5400220498411CC9B204918C49A2
:1038F0000A548C48B0F82A030246AFF2FC510390F8
:1039000089480BF0A3F888480AF090FAC2B20498EC
:10391000411CC9B2049182490A54084604990844DA
:10392000814903900AF089FA7F480AF07FFA0499E6
:103930000844C0B2049000220498411CC9B204910A
:1039400077490A5404220498411CC9B2049174496D
:103950000A5400220498411CC9B2049170490A54C7
:1039600001220498411CC9B204916D490A546D4862
:1039700090F888220498411CC9B2049168490A54FD
:1039800000220499481CC0B20490654842540822A1
:103990000498411CC9B2049161490A540022049858
:1039A000411CC9B204915E490A5401220498411C89
:1039B000C9B204915A490A545A4890F88922049885
:1039C000411CC9B2049156490A5401F005B9EE22CE
:1039D0000498411CC9B2049151490A54B122049877
:1039E000411CC9B204914E490A5412220498411C48
:1039F000C9B204914A490A5400220498411CC9B230
:103A0000049147490A5402220498411CC9B2049106
:103A100043490A54434890F8610300287ED0414846
:103A200090F862030028F9D000220498411CC9B222
:103A300004913B490A5409220498411CC9B20491DB
:103A400037490A5400220498411CC9B204913449F0
:103A50000A54344890F862030246AFF25C71039056
:103A600031480AF0F3FF30480AF0E0F9C2B2049896
:103A7000411CC9B204912A490A54084604990844D1
:103A8000294903900AF0D9F927480AF0CFF9049997
:103A90000844C0B2049000220498411CC9B20491A9
:103AA0001F490A540D220498411CC9B204911C49B3
:103AB0000A5400220498411CC9B2049118490A54BE
:103AC0001848B0F97A030246AFF2CC710390164859
:103AD0000AF0BCFF14480AF0A9F9C2B20498411CCC
:103AE000C9B204910E490A540846049908440E4983
:103AF00003900AF0A2F90C480AF098F904990844D6
:103B0000C0B2049000220498411CC9B20491044937
:103B10000A5411220498411CC9B207E0BAE000001F
:103B2000132E0020E42F0020732F00200491FE4963
:103B30000A5400220498411CC9B20491FA490A545B
:103B4000FA48D0F8880301900AF051FBCDE9020150
:103B50009DED020B53EC102BAFF65401F4480AF024
:103B600075FFF3480AF062F9C2B20498411CC9B269
:103B70000491ED490A54084604990844EC4903901D
:103B80000AF05BF9EA480AF051F904990844C0B216
:103B9000049000220498411CC9B20491E2490A54DD
:103BA00015220498411CC9B20491DF490A5400222D
:103BB0000498411CC9B20491DB490A54DB48B0F8AF
:103BC00002040246AFF6C8010390D9480AF03EFF4E
:103BD000D7480AF02BF9C2B20498411CC9B204912B
:103BE000D1490A54084604990844D14903900AF07F
:103BF00024F9CF480AF01AF904990844C0B2049095
:103C000000220498411CC9B20491C7490A540122F8
:103C10000498411CC9B20491C3490A540022049873
:103C2000411CC9B20491C0490A5401220498411CA4
:103C3000C9B20491BC490A54BC4890F86023049866
:103C4000411CC9B20491B8490A5400220498411C8D
:103C5000C9B20491B4490A5405220498411CC9B25E
:103C60000491B1490A5400220498411CC9B204913C
:103C7000AD490A5401220498411CC9B20491AA49D1
:103C80000A54AA4890F861230498411CC9B20491CF
:103C9000A5490A54A54890F8390400287ED0A348C5
:103CA00090F83A040028F9D000220498411CC9B2C7
:103CB00004919D490A540A220498411CC9B20491F6
:103CC00099490A5400220498411CC9B204919649AA
:103CD0000A54964890F83A040246AFF6DC11039075
:103CE00093480AF0B3FE92480AF0A0F8C2B20498D2
:103CF000411CC9B204918C490A54084604990844ED
:103D00008B4903900AF099F889480AF08FF80499D2
:103D10000844C0B2049000220498411CC9B2049126
:103D200081490A540E220498411CC9B204917E496B
:103D30000A5400220498411CC9B204917A490A54D9
:103D40007A48B0F952040246AFF64C210390784805
:103D50000AF07CFE76480AF069F8C2B20498411C69
:103D6000C9B2049170490A5408460499084470493C
:103D700003900AF062F86E480AF058F80499084473
:103D8000C0B2049000220498411CC9B20491664953
:103D90000A5412220498411CC9B200E0B2E0049116
:103DA00061490A5400220498411CC9B204915E4939
:103DB0000A545E48D0F8600401900AF018FACDE980
:103DC00002019DED020B53EC102BAFF6C4215848B5
:103DD0000AF03CFE56480AF029F8C2B20498411C89
:103DE000C9B2049150490A540846049908445049FC
:103DF00003900AF022F84E480AF018F80499084493
:103E0000C0B2049000220498411CC9B204914649F2
:103E10000A5416220498411CC9B2049142490A541A
:103E200000220498411CC9B204913F490A543F48FA
:103E3000B0F8DA040246AFF6383103903C480AF095
:103E400005FE3B4809F0F2FFC2B20499481CC0B21B
:103E5000049035484254049908443549039009F0C8
:103E6000ECFF334809F0E2FF04990844C0B2049023
:103E700000220498411CC9B204912B490A54022221
:103E80000498411CC9B2049127490A54002204989D
:103E9000411CC9B2049124490A5401220498411CCE
:103EA000C9B2049120490A54204890F83824049853
:103EB000411CC9B204911C490A5400220498411CB7
:103EC000C9B2049118490A5406220498411CC9B287
:103ED000049115490A5400220498411CC9B2049166
:103EE00011490A5401220499481CC0B204900E489A
:103EF00042540E4890F839240498411CC9B20491E8
:103F000009490A54094890F8110500287ED007484D
:103F100090F812050028F9D000220498411CC9B27B
:103F2000049101490A5405E0132E0020E42F0020DB
:103F3000732F00200B220498411CC9B20491FE4942
:103F40000A5400220498411CC9B20491FA490A5447
:103F5000FA4890F812050246AFF65C410390F84823
:103F60000AF074FDF64809F061FFC2B20498411CE2
:103F7000C9B20491F0490A54084604990844F0492A
:103F8000039009F05AFFEE4809F050FF04990844E5
:103F9000C0B2049000220498411CC9B20491E649C1
:103FA0000A540F220498411CC9B20491E2490A54F0
:103FB00000220499481CC0B20490DF484254DF48F4
:103FC000B0F92A050246AFF6C8410390DC480AF072
:103FD0003DFDDB4809F02AFFC2B20498411CC9B27A
:103FE0000491D5490A54084604990844D4490390D9
:103FF00009F023FFD24809F019FF04990844C0B220
:10400000049000220498411CC9B200E0BAE0049177
:10401000C9490A5413220498411CC9B20491C649E3
:104020000A5400220498411CC9B20491C2490A549E
:10403000C248D0F8380501900AF0D9F8CDE902015C
:104040009DED020B53EC102BAFF64451BC480AF027
:10405000FDFCBB4809F0EAFEC2B20498411CC9B29B
:104060000491B5490A54084604990844B449039098
:1040700009F0E3FEB24809F0D9FE04990844C0B241
:10408000049000220498411CC9B20491AA490A5420
:1040900017220498411CC9B20491A7490A5400226E
:1040A0000498411CC9B20491A3490A54A348B0F82A
:1040B000B2050246AFF6B8510390A1480AF0C6FC1B
:1040C0009F4809F0B3FEC2B20498411CC9B20491E2
:1040D00099490A540846049908449949039009F0FB
:1040E000ACFE974809F0A2FE04990844C0B20490BF
:1040F00000220498411CC9B204918F490A5403223A
:104100000499481CC0B204908B4842540022049881
:10411000411CC9B2049188490A5401220498411CE7
:10412000C9B2049184490A54844890F8102504982F
:10413000411CC9B2049180490A5400220498411CD0
:10414000C9B204917C490A5407220498411CC9B29F
:10415000049179490A5400220498411CC9B204917F
:1041600075490A5401220498411CC9B2049172494C
:104170000A54724890F811250498411CC9B2049160
:104180006D490A546D4890F8E90500287ED06B48C7
:1041900090F8EA050028F9D000220498411CC9B221
:1041A000049165490A540C220498411CC9B2049137
:1041B00061490A5400220498411CC9B204915E4925
:1041C0000A545E4890F8EA050246AFF6CC610390C7
:1041D0005B480AF03BFC5A4809F028FEC2B204983A
:1041E000411CC9B2049154490A5408460499084430
:1041F0005349039009F021FE514809F017FE049934
:104200000844C0B2049000220498411CC9B2049131
:1042100049490A5410220498411CC9B204914649E4
:104220000A5400220498411CC9B2049142490A541C
:104230004248B0F902060246AFF63C71039040488E
:104240000AF004FC3E4809F0F1FDC2B20498411C9A
:10425000C9B2049138490A540846049908443849B7
:10426000039009F0EAFD364809F0E0FD049908449E
:10427000C0B2049000220498411CC9B204912E4996
:104280000A5414220498411CC9B200E0BBE0049116
:1042900029490A5400220498411CC9B204912649B4
:1042A0000A542648D0F81006019009F0A0FFCDE985
:1042B00002019DED020B53EC102BAFF6B4712048B8
:1042C0000AF0C4FB1E4809F0B1FDC2B20498411CBB
:1042D000C9B2049118490A54084604990844184977
:1042E000039009F0AAFD164809F0A0FD04990844BE
:1042F000C0B2049000220498411CC9B204910E4936
:104300000A5418220498411CC9B204910A490A545B
:1043100000220498411CC9B2049107490A54074875
:10432000B0F88A06024607A1039005480AF08EFB02
:10433000034809F07BFD07E0132E0020E42F002046
:10434000732F002025640000C2B20498411CC9B23A
:104350000491FE490A54084604990844FC49039014
:1043600009F06BFDFA4809F061FD04990844C0B2F8
:10437000049000220498411CC9B20491F3490A54E4
:1043800004220498411CC9B20491F0490A54002245
:104390000498411CC9B20491EC490A5401220498C2
:1043A000411CC9B20491E9490A54EA4890F8E82549
:1043B0000498411CC9B20491E4490A5400220499AA
:1043C000481CC0B20490E148425408220498411CA1
:1043D000C9B20491DD490A5400220498411CC9B2B3
:1043E0000491DA490A5401220498411CC9B204918B
:1043F000D6490A54D74890F8E9250499481CC0B218
:104400000490D2484254E7E3EE220498411CC9B21A
:104410000491CE490A54B1220498411CC9B20491B6
:10442000CA490A5412220498411CC9B20491C749CE
:104430000A5400220498411CC9B20491C3490A5489
:1044400003220498411CC9B20491C0490A54C248CD
:10445000007800EB8000C14901EB001000780028D3
:104460007ED000220498411CC9B20491B7490A5475
:1044700010220498411CC9B20491B4490A54002284
:104480000498411CC9B20491B0490A54B24800785A
:1044900000EB8000B14901EB0010B0F914000246B6
:1044A000AFF260110390AA480AF0D0FAA84809F0C8
:1044B000BDFCC2B20498411CC9B20491A3490A547C
:1044C000084604990844A249039009F0B6FCA048A4
:1044D00009F0ACFC04990844C0B20490002204988E
:1044E000411CC9B2049199490A5411220498411CF3
:1044F000C9B2049195490A5400220498411CC9B2DA
:10450000049192490A549448007800EB8000934942
:1045100001EB0010B0F910000246AFF2D811039081
:104520008B480AF093FA8A4809F080FCC2B20498DA
:10453000411CC9B2049185490A54084604990844AB
:104540008349039009F079FC814809F06FFC0499D4
:104550000844C0B2049000220498411CC9B200E093
:1045600038E0049179490A5413220499481CC0B2D6
:1045700004907648425400220498411CC9B2049128
:1045800072490A547448007800EB8000734901EBCB
:104590000010B0F912000246AFF2582103906C48A7
:1045A0000AF054FA6A4809F041FCC2B20498411C6E
:1045B000C9B2049165490A540846049908446449FB
:1045C000039009F03AFC624809F030FC0499084471
:1045D000C0B2049000E3EE220499481CC0B20490DB
:1045E0005A484254B1220498411CC9B20491574917
:1045F0000A5412220498411CC9B2049153490A5426
:1046000000220498411CC9B2049150490A54042262
:104610000498411CC9B204914C490A5400220498E0
:10462000411CC9B2049149490A5402220498411C10
:10463000C9B2049145490A5400220499481CC0B2E9
:1046400004904248425401220498411CC9B204918A
:104650003E490A544248007800EB4000414901EBD2
:10466000801002780499481CC0B204903748425424
:1046700000220499481CC0B20490344842540322DA
:104680000499481CC0B20490304842540022049956
:10469000481CC0B204902D48425401220498411C89
:1046A000C9B2049129490A542F48007800EB400010
:1046B0002C4901EB801002780498411CC9B2049186
:1046C00022490A5400220498411CC9B204911F498E
:1046D0000A5404220498411CC9B204911B490A548B
:1046E00000220498411CC9B2049118490A540122BD
:1046F0000498411CC9B2049114490A54184800781E
:1047000000EB4000174901EB801002780498411C2F
:10471000C9B204910D490A5400220498411CC9B23F
:1047200004910A490A5405220498411CC9B2049113
:1047300006490A5400220498411CC9B20491034955
:104740000A5401220498411CC9B20FE0132E002024
:10475000732F0020E42F00202A0000201C370020A7
:104760002B000020DC3800202C0000200491FE49A2
:104770000A54FE48007800EB4000FD4901EB801030
:1047800002780498411CC9B20491F7490A540022E6
:104790000498411CC9B20491F3490A540A220498AE
:1047A000411CC9B20491F0490A5400220498411CEA
:1047B000C9B20491EC490A54EE48007800EB40007D
:1047C000EB4901EB8010B0F91C000246AFF28C41BE
:1047D0000390E9480AF03AF9E74809F027FBC2B22A
:1047E0000498411CC9B20491DF490A54084604994F
:1047F0000844E149039009F020FBDF4809F016FB6B
:1048000004990844C0B2049000220499481CC0B224
:104810000490D54842540B220498411CC9B204911B
:10482000D1490A5400220498411CC9B20491CE49CE
:104830000A54CE48007800EB4000CD4901EB8010CF
:10484000B0F91C000246AFF204510390CA480AF0C6
:10485000FDF8C94809F0EAFAC2B20498411CC9B28D
:104860000491C1490A54084604990844C249039076
:1048700009F0E3FAC04809F0D9FA04990844C0B233
:10488000049000220498411CC9B20491B6490A540C
:104890000C220499481CC0B20490B3484254002230
:1048A0000499481CC0B20490AF484254B148007803
:1048B00000EB4000AE4901EB801090ED0A0A8DED4F
:1048C000010A019809F093FCCDE902019DED020B6C
:1048D00053EC102BA9A1A8480AF0B8F8A64809F093
:1048E000A5FAC2B20499481CC0B204909E48425432
:1048F00004990844A049039009F09FFA9E4809F0E2
:1049000095FA04990844C0B2049000220498411C0E
:10491000C9B2049194490A540D220498411CC9B2A9
:10492000049191490A5400220498411CC9B204918F
:104930008D490A548D48007800EB40008C4901EB0A
:10494000801090ED0A0A8DED010A019809F04FFCE4
:10495000CDE902019DED020B53EC102B87A1864897
:104960000AF074F8844809F061FAC2B20498411C54
:10497000C9B204917C490A540846049908447E4906
:10498000039009F05AFA7C4809F050FA0499084457
:10499000C0B2049000220498411CC9B2049172492B
:1049A0000A540E220498411CC9B204916E490A545B
:1049B00000220498411CC9B204916B490A546D4805
:1049C000007800EB40006A4901EB8010C16A08469C
:1049D000019109F00CFCCDE902019DED020B53ECB5
:1049E000102B66A164480AF031F8634809F01EFAFA
:1049F000C2B20498411CC9B204915B490A540846EA
:104A0000049908445C49039009F017FA5A4809F0E0
:104A10000DFA04990844C0B2049000220498411C85
:104A2000C9B2049150490A540F220498411CC9B2DA
:104A300004914D490A5400220498411CC9B20491C2
:104A400049490A544948007800EB4000484901EBC5
:104A50008010C16A0846019109F0C9FBCDE9020145
:104A60009DED020B53EC102B44A1434809F0EEFFDF
:104A7000414809F0DBF9C2B20498411CC9B2049163
:104A800039490A540846049908443B49039009F0FF
:104A9000D4F9394809F0CAF904990844C0B204901D
:104AA00000220498411CC9B204912F490A541022D3
:104AB0000498411CC9B204912B490A54002204985D
:104AC000411CC9B2049128490A542A48007800EBD5
:104AD0004000274901EB801090ED090A8DED010A95
:104AE000019809F084FBCDE902019DED020B53EC26
:104AF000102B22A1204809F0A9FF1F4809F096F9C0
:104B0000C2B20498411CC9B2049117490A5408461C
:104B1000049908441849039009F08FF9164809F0E0
:104B200085F904990844C0B2049000220498411CFD
:104B3000C9B204910C490A5411220498411CC9B20B
:104B4000049109490A5400220498411CC9B20491F5
:104B500005490A540548007800EB4000044901EB80
:104B6000801090ED090A0DE0132E00202C0000208B
:104B7000DC3800202B000020732F0020252E326C03
:104B8000660000008DED010A019809F030FBCDE9C7
:104B900002019DED020B53EC102BAFF220011148E6
:104BA00009F054FF0F4809F041F9C2B20498411CC2
:104BB000C9B204910C490A540846049908440949A9
:104BC000039009F03AF9074809F030F904990844CC
:104BD000C0B2049000E000BF00BF0498FEF75AF98D
:104BE00005B000BD732F0020132E0020002282612B
:104BF0000161C26100230362436280ED000AC0EDDF
:104C0000010A80ED021AC0ED031A7047016982693A
:104C1000891AC161C269016A511A00EE101AB8EE10
:104C2000C00AD0ED000A20EE200A90ED011AC169F9
:104C300000EE901AF8EEE00A01EE200AC269016A5D
:104C4000022303FB1122416A114400EE901AF8EE90
:104C5000E00A90ED021A01EE200ABDEEC00A10EE45
:104C6000101A4161026A4262C26902627047000022
:104C700010B54FF40050FE4908809FEDFE0A08462B
:104C800080ED010A43F699100881B7EE000A084644
:104C900080ED030A4FF40050F74908809FEDF70AB2
:104CA000084680ED010A42F228300881B7EE000A7A
:104CB000084680ED030A0120F1490872887300203C
:104CC00008704FF4FA704881088280004882012001
:104CD000087348730020EB49486132200883C820DC
:104CE0004883002430E004EBC40000EB4000E649B8
:104CF00001EBC000E3490968C0F8AC10E148416825
:104D000004EBC40000EB4000DF4A02EBC000C0F837
:104D1000B01004EBC40101EB410102EBC10101F150
:104D2000B4001422D749083109F05CF804EBC4013F
:104D300001EB4101D44A02EBC10101F198001422B8
:104D4000CF4909F04FF8641C082CCCDBCE488030EA
:104D5000C74C1ECC48301EC00020CB490870012033
:104D60004870052088709FEDC90A084680ED050A45
:104D70006421C1806420C44988800846C168DFED91
:104D8000C41A9FEDC21ADFEDC30AB1EE040A48301F
:104D9000FFF72CFFBC48B0F90610F7EE001A9FEDA4
:104DA000BB1ADFEDBD0AB2EE000A7030FFF71EFF3E
:104DB000BA48B14C1ECC48301EC00020B24981F820
:104DC000D8000121B04880F8D910052180F8DA1008
:104DD0009FEDAE0A80ED3B0A6421A0F8DE10A0F83A
:104DE000DC10D0F8E410DFEDAA1A9FEDA81ADFED71
:104DF000A90AB1EE040A00F59070FFF7F7FEA24889
:104E0000B0F9DE10F7EE001A9FEDA01ADFEDA20A4E
:104E1000B2EE000A00F5A470FFF7E8FE9F48D83014
:104E2000934C1ECC48301EC00120974981F8B00138
:104E30000121954880F8B111052180F8B2119FED4C
:104E4000930A80ED710A6421A0F8B6113221A0F80E
:104E5000B411B5EE000A80EDA10A002180F84812D5
:104E60009FED8F0A80ED930A40F2DC51A0F85212B8
:104E7000D0F8BC11DFED861A9FED841ADFED850AAC
:104E8000B1EE040A00F5FC70FFF7B0FE7E48B0F901
:104E9000B611F7EE001A9FED7D1ADFED7F0AB2EE34
:104EA000000A00F50870FFF7A1FE7E48724C1ECC88
:104EB00048301EC00020744981F8880201217248E0
:104EC00080F88912052180F88A129FED700A80ED22
:104ED000A70A6421A0F88E123221A0F88C1243F6A2
:104EE0009821A0F82A13D0F89412DFED691A9FEDEB
:104EF000671ADFED680AB1EE040A00F53470FFF7B7
:104F000075FE6148B0F98E12F7EE001A9FED5F1A38
:104F1000DFED610AB2EE000A00F53E70FFF766FEB3
:104F20006048D830524CD4E901132268E468C0E9E3
:104F30001434C0E912210120534981F86003012192
:104F4000514880F86113052180F862139FED4F0AE4
:104F500080EDDD0A6421A0F866133221A0F8641305
:104F60009FED510A00F5587080ED350A0121464841
:104F700080F8F8139FED4D0A80EDFF0A40F2DC51F6
:104F8000A0F80214D0F86C13DFED411A9FED3F1A20
:104F9000DFED400AB1EE040A00F56A70FFF726FE65
:104FA0003948B0F96613F7EE001A9FED381ADFEDB5
:104FB0003A0AB2EE000A00F57470FFF717FE3C489B
:104FC0002B4C1ECC48301EC000202F4981F83804DD
:104FD00001212D4880F83914052180F83A149FEDFD
:104FE0002B0A00F5876080ED050A64212648A0F8A9
:104FF0003E143221A0F83C14012180F8D0149FED1A
:105000002D0A00F5876080ED270AB6EE000A80EDD4
:10501000350A40F24C411C48A0F8DA14D0F8441488
:10502000DFED1B1A9FED191ADFED1A0AB1EE040A23
:1050300000F59060FFF7DAFD1348B0F93E14F7EE83
:10504000001A9FED121ADFED140AB2EE000A00F505
:105050009560FFF7CBFD1648D830054C1ECC483084
:105060001EC00020084981F810050121064823E0F0
:10507000942F00202CA09941A42F00200000104262
:10508000B42F0020C82F0020E42F002000000000D3
:10509000CDCCCC3ECDCC4C3E9A99993E3C310020B3
:1050A00000002042EC3200201111113E00001C4291
:1050B0009C3400200000F04280F81115052180F892
:1050C00012151FED0E0A00F5A26080ED050A64219D
:1050D000A0F5A260A0F816153221A0F81415D0F89A
:1050E0001C155FED151A1FED171A5FED160AB1EECC
:1050F000040A00F5AB60FFF779FDFE48B0F916151C
:10510000F7EE001A1FED1F1A5FED1D0AB2EE000A3E
:1051100000F5B060FFF76AFDF748F84C1ECC483048
:105120001EC00020F34981F8E8050121F14880F80C
:10513000E915052180F8EA151FED2C0A00F5BD6080
:1051400080ED050A6421EB48A0F8EE153221A0F8A5
:10515000EC15D0F8F4155FED321A1FED341A5FED3F
:10516000330AB1EE040A00F5C660FFF73FFDE148DF
:10517000B0F9EE15F7EE001A1FED3C1A5FED3A0A92
:10518000B2EE000A00F5CB60FFF730FD002073E0BF
:1051900000EBC00101EB4101D64A02EBC10191EDE8
:1051A000270A00EBC00101EB410102EBC10191EDC7
:1051B000351AC0EE010A00EBC00101EB410102EB20
:1051C000C10191ED330A60EE800A00EBC00101EBF2
:1051D000410102EBC101B1F8C81000EE101AB8EE9F
:1051E000400A20EE800ADFEDC60A80EE201ABCEEEF
:1051F000C10A00EBC00101EB410102EBC10181EDED
:105200002B0A00EBC00101EB410102EBC10191ED62
:10521000050A00EBC00101EB410102EBC10191ED78
:10522000351AC0EE010A00EBC00101EB410102EBAF
:10523000C10191ED330A60EE800A00EBC00101EB81
:10524000410102EBC101B1F8C81000EE101AB8EE2E
:10525000400A20EE800ADFEDAA0A80EE201ABDEE99
:10526000C10A10EE101A00EBC00202EB4202A14B81
:1052700003EBC202D160401C082889DB10BD00226C
:1052800045210A5402621FED7F0A80ED0A0AB4210B
:105290000A52704710B5044604EBC40000EB40000E
:1052A000944901EBC000D0ED1F0A04EBC40000EBF1
:1052B000400001EBC000B0F9060000EE100AB8EEA5
:1052C000C00A20EE800ABDEEC00A10EE100A04EB00
:1052D000C40101EB4101874A02EBC101C1F8800022
:1052E00004EBC40000EB4000114601EBC000B0F934
:1052F0001A1004EBC40000EB400002EBC000C0F841
:10530000881004EBC40101EB410102EBC10101F182
:105310007000FFF77BFC04EBC40000EB4000754914
:1053200001EBC000818804EBC40000EB4000714A2F
:1053300002EBC000D0F88400084400B204EBC401C2
:1053400001EB410102EBC101888010BD10B504469C
:1053500004EBC40000EB4000664901EBC00090ED97
:10536000350AF7EE000AB4EE600AF1EE10FA3AD010
:1053700004EBC40000EB400001EBC00090ED050A17
:1053800004EBC40000EB400001EBC000D0ED350A97
:1053900080EE201A04EBC40000EB400001EBC000DB
:1053A00090ED330A61EE000A04EBC40000EB40000C
:1053B00001EBC000B0F8C80000EE100AB8EE400AD9
:1053C00020EE800ADFED4E0A80EE201ABDEEC10A03
:1053D00010EE100A04EBC40101EB4101454A02EB57
:1053E000C101C86030E004EBC40000EB400041495B
:1053F00001EBC00090ED050A04EBC40000EB400097
:1054000001EBC000D0ED330A60EE200A04EBC400CB
:1054100000EB400001EBC000B0F8C80000EE100A3D
:10542000B8EE400A20EE800ADFED350A80EE201A41
:10543000BDEEC10A10EE100A04EBC40101EB4101FC
:105440002C4A02EBC101C86004EBC40000EB400031
:10545000284901EBC000C16804EBC40000EB400028
:10546000244A02EBC000816504EBC40000EB40005D
:10547000114601EBC000407870B904EBC40000EBAA
:10548000400001EBC000D0F8B01004EBC40000EB0A
:10549000400002EBC000816504EBC40000EB40005B
:1054A000144901EBC00090F8980058B304EBC40015
:1054B00000EB400001EBC000806D002807DD04EB2D
:1054C000C40000EB400001EBC000806D08E004EB7D
:1054D000C40000EB4000074901EBC000806D404272
:1054E00004EBC40101EB4101024A02EBC101D1F816
:1054F000AC1008E0E42F00204C360020942F002050
:105500000000B44320E088421ED904EBC40000EB45
:105510004000114601EBC000806D002801DB012036
:1055200001E04FF0FF3004EBC40101EB4101FE4A02
:1055300002EBC101D1F8AC10484304EBC40101EB0C
:10554000410102EBC101886504EBC40000EB40009F
:10555000F54901EBC000016A04EBC40000EB400018
:10556000F14A02EBC000016604EBC40101EB41010A
:1055700002EBC10101F14800FFF748FB04EBC40056
:1055800000EB4000E84901EBC000D0ED150A04EB48
:10559000C40000EB400001EBC000C06D00EE100A3B
:1055A000B8EEC00A20EE800ABDEEC00A10EE100A66
:1055B00004EBC40101EB4101DB4A02EBC101C1F87C
:1055C000800004EBC40000EB4000114601EBC0007A
:1055D00090F8A000A0B304EBC40000EB400001EB86
:1055E000C000D0F88000002808DD04EBC40000EB08
:1055F000400001EBC000D0F8800009E004EBC400DB
:1056000000EB4000C84901EBC000D0F880004042E8
:1056100004EBC40101EB4101C34A02EBC101B1F843
:10562000A210884221DD04EBC40000EB40001146CB
:1056300001EBC000D0F88000002802DB012002E06E
:1056400013E04FF0FF3004EBC40101EB4101B64A17
:1056500002EBC101B1F8A210484304EBC40101EB15
:10566000410102EBC101C1F8800004EBC40000EB72
:105670004000AD4901EBC000B0F91A1004EBC400C2
:1056800000EB4000A84A02EBC000C0F8881004EB11
:10569000C40101EB410102EBC10101F17000FFF710
:1056A000B5FA04EBC40000EB40009F4901EBC000D9
:1056B000818804EBC40000EB40009B4A02EBC00071
:1056C000D0F88400084400B204EBC40101EB4101AE
:1056D00002EBC101888004EBC40000EB40001146DE
:1056E00001EBC000D0F8B800002808DD04EBC400CE
:1056F00000EB400001EBC000D0F8B80009E004EB7B
:10570000C40000EB4000884901EBC000D0F8B800AD
:1057100040423C280ADA012004EBC40101EB4101BC
:10572000814A02EBC10181F8400009E0002004EB4E
:10573000C40101EB41017C4A02EBC10181F8400048
:1057400010BD10B5044604EBC40000EB40007649E0
:1057500001EBC000B0F9A81004EBC40000EB40005E
:10576000714A02EBC000C0F8801004EBC40000EBEB
:105770004000114601EBC000B0F91A1004EBC40060
:1057800000EB400002EBC000C0F8881004EBC4013D
:1057900001EB410102EBC10101F17000FFF736FAA4
:1057A00004EBC40000EB40005F4901EBC0008188BE
:1057B00004EBC40000EB40005B4A02EBC000D0F8F1
:1057C0008400084400B204EBC40101EB410102EB88
:1057D000C101888004EBC40000EB4000114601EBDE
:1057E000C000B0F90400002808DD04EBC40000EBA1
:1057F000400001EBC000B0F9040009E004EBC40074
:1058000000EB4000484901EBC000B0F90400404201
:105810004649498A88421ADD04EBC40000EB400087
:10582000414901EBC000B0F90400002801DB012070
:1058300001E04FF0FF303D49498A484300B204EB94
:10584000C40101EB4101384A02EBC101888004EB3D
:10585000C40000EB4000344901EBC000B0F9B400D3
:10586000002808DD04EBC40000EB400001EBC000A1
:10587000B0F9B40009E004EBC40000EB40002A4991
:1058800001EBC000B0F9B4004042322814DA04EB56
:10589000C40000EB4000244901EBC000B0F8BC009C
:1058A000401C81B204EBC40000EB40001E4A02EB36
:1058B000C000A0F8BC1009E0002104EBC40000EB1C
:1058C0004000194A02EBC000A0F8BC1004EBC40071
:1058D00000EB4000144901EBC000B0F8BC00FA280E
:1058E00021DD002104EBC40000EB40000E4A02EB76
:1058F000C000A0F8BC1004EBC40000EB400002EBB9
:10590000C0000162052004EBC40101EB410102EB80
:10591000C1018870012104EBC40000EB400002EBE0
:10592000C00080F8411010BDE42F0020B42F0020EB
:1059300070B5044604EBC40000EB4000FE4911F8CA
:10594000300008B9002070BD04EBC40000EB40003B
:10595000F94901EBC00090F8A40000287ED004EBC8
:10596000C40000EB400001EBC0008078022876D133
:1059700004EBC40000EB400001EBC000B0F91A00DA
:10598000002808DD04EBC40000EB400001EBC00080
:10599000B0F91A0009E004EBC40000EB4000E6494E
:1059A00001EBC000B0F91A004042002834DB04EBE0
:1059B000C40000EB4000E04901EBC000B0F91A0060
:1059C000002808DD04EBC40000EB400001EBC00040
:1059D000B0F91A0009E004EBC40000EB4000D6491E
:1059E00001EBC000B0F91A004042642814DA04EB5D
:1059F000C40000EB4000D04901EBC00090F8BE00AD
:105A0000401CC1B204EBC40000EB4000CA4A02EBE8
:105A1000C00080F8BE1009E0002104EBC40000EBD8
:105A20004000C54A02EBC00080F8BE1004EBC40081
:105A300000EB4000C04901EBC00090F8BE1004EB41
:105A4000C40000EB4000BC4A02EBC000B0F8C60046
:105A5000814216DD012104EBC40001E0B9E06BE0F6
:105A600000EB400002EBC00080F84210012242EA45
:105A7000041292B242F40071B04A5068FCF7EEF89A
:105A800019E0002104EBC40000EB4000AA4A02EB3D
:105A9000C00080F84210012242EA041292B242F49D
:105AA0000071A64A5068FCF7CBF80546A349486840
:105AB0002946FCF7AFF804EBC40000EB40009E4918
:105AC00001EBC000C8309E4988421AD104EBC400E3
:105AD00000EB4000984901EBC00090F8420001281B
